:040000008A15002835
:10000800FF00030E83018316DC000A08DD008A0165
:1000180070088312A4007B08A3007C08A2007D0856
:10002800A1008B1C56288316070883120317AE00FD
:10003800FF308316031387000530CA000030CB0059
:100048008030F00080304B067002031D2D284A08CE
:10005800003C03184E28F830831288059025902517
:1000680090259025902590259025902590259025E0
:100078000730880490259025902590259025902577
:10008800902590259025902501308316CA02031CDF
:10009800CB032428831203172E0883160313870023
:1000A800FD308B050B1D61280630831281008316F5
:1000B800D90A0319DA0AFB308B0583122408F000E9
:1000C8002308FB002208FC002108FD0083165D08B8
:0C00D8008A005C0E8300FF0E7F0E090002
:1000E4000F3083120313FC004730FD00FD0B78280A
:0A00F400FC0B782800000000080053
:0E00FE00213083120313FD00FD0B8328080040
:06010C00000000000800E5
:100112007B15FB1F93280130F300F201F101F0017E
:08012200FA0DF20CFF30080099
:10012A0083120313F801F9011030FC00710DF80D68
:10013A00F90D7408F8027508031C750FF902031803
:10014A00AD287408F80775080318750FF907031026
:0A015A00F00DF10DFC0B9B280800CE
:100164000E3083120313FD00FD0BB62800000800B7
:08017400FA1FF213003008002D
:10017C0083120317AD1BC52803138811C72803135B
:10018C00881503172D1BCD2803130811CF28031333
:10019C0008150317AD1AD52803138810D728031395
:1001AC00881403172D1ADD2803130810DF280313F6
:1001BC00081483165B18E52883120816E7288312A7
:1001CC0008128816862088120317AD19F02803131D
:1001DC008811F2280313881503172D19F828031317
:1001EC000811FA28031308150317AD180029031377
:1001FC00881002290313881403172D1808290313D8
:10020C0008100A290313081483165B18102983128B
:10021C000816122983120812881686208812831653
:0C022C005B1C1A2972201B297F2008008F
:0E023800F201F101F001F801F30100300800BD
:100246000C30831203139700F9308316920007309F
:0C02560083129200950103309704080009
:0E0262008316031355088A0054088200080012
:1002700083120317AB0105302B02031846292B0804
:100280002A07840020308000AB0A3B292B082A076C
:1002900084008001AB032B082A07AC000A30F4006D
:1002A000F5012808F0002908F10095207808F000F1
:1002B0007908F1003030F00703172C08840070082B
:1002C00080000A30F400F5012808F0002908F10048
:1002D000952070080317A8007108A9000030710666
:1002E000031D742900307006031D77297929AB039B
:0402F0004B2908008E
:1002F400831203139F01C0309F046F09F00070083C
:1003040083169F051F179F17831203172808F000F1
:10031400F00D7010F00D7010F00D701070080313D4
:100324009F041F14B2201F151F1D9A29000096292F
:100334001F101E08F100F00183161E08F00400309F
:04034400F1040800B8
:10034800FF3083160313D600FF30D700FF30D800E4
:10035800FF3083129F01C0309F046F09F0007008BE
:0E03680083169F051F179F1783121F1408008E
:100376007B14FB1FC629F201FA1FFF30F200F100C1
:0A038600F000FA0DF20CFF30080041
:1003900083120313FA017308031D7A147708031DEF
:1003A000FA147A080319142A033A0319DF297A1870
:1003B000DC29F61F122A102AF21F102A122A7208AC
:1003C0008039FA00F21376088039F6137A06031999
:1003D000ED297A080319102A122A770873020319E3
:1003E000F429031C082A0C2A760872020319FB2937
:1003F000031C082A0C2A750871020319022A031C1F
:10040000082A0C2A740870020319142A03180C2AEB
:10041000FA080319122A102AFA080319102A122AB4
:100420000314080003100800031403150800080053
:1004300083120313F101F201031729087202031D4D
:10044000232A280871020318372AF301F401003027
:100450007402031D2D2AA53073020318332AF30AF0
:100460000319F40A272AF10A0319F20A1C2A0800C0
:10047000831603135B10831203172808AD00BE20F8
:0604800083165B14080066
:10048600A0017208031D582A7108F2007008F100D5
:10049600F001A0157208031D582A7108F200F10137
:1004A600A011201672080319662A2008F302031DFC
:1004B600031C6A2A0310F21B6E2AF00DF10DF20DD1
:1004C600F30B5E2A6A2A0130FC001C21712A0230D5
:0E04D600FC008920712A0430FC00BA200800C6
:1004E400710DF80DF90D7408F8027508031C750FE9
:1004F400F902F00DF10D0F30FC00710DF80DF90D3E
:100504007408701C8B2AF8027508031C750FF90215
:10051400902AF80775080318750FF907F00DF10D07
:10052400FC0B7F2A70189C2A7408F80775080318B6
:08053400750FF9070000080033
:10053C00831203137008F8007108F000F101F20146
:10054C00F301FB01FC019630F300FA01F01FB42A11
:10055C00F809F009F80A0319F00AFA177008F10003
:0C056C007808F000F801F20143220800BA
:100578000830831203130705F10000300039F20038
:1005880000307206031DCA2A0030710601300319B3
:0A0598000030F0000030F100080010
:1005A200831203172008013A031DDB2A1F080313D5
:1005B2009B00EC2A03172008023A031DE42A1F08B5
:1005C20003139500EC2A03171F0803139B0003175C
:0805D2001F0803139500080047
:1005DA00831203179F01A001831603136F08F20009
:1005EA006F08F300720884000008203A031D042BE8
:1005FA00831203171F082004031D042B132B8312D5
:10060A00031701309F000030A00072088400000820
:10061A00F0007308840070088000F30A7208F10081
:10062A00F20A710884000008003A031DF72A8316AB
:08063A0003136F08F000080033
:10064200831203137408003A031D302B7508003A15
:10065200031D302BFF30F0007F30F100892B831215
:100662000313FD01F901F801710870040319003444
:1006720071087506FA00FA1BFD09FB01F51F462BEE
:10068200F409F509F40A0319F50AF11F4D2BF009D3
:10069200F109F00A0319F10A71087504FA00FA1B4C
:1006A200622B72227B18752BFD1F0034F009F109B1
:1006B200F00A0319F10AF809F909F80A0319F90A03
:1006C2000034F51F712BF11B6D2B7108F9007008B6
:1006D200F800F101F001552BF101F001F00A0034AC
:1006E200F109F009FB0A522BF80A0319F90A7408F6
:1006F2007802031D552B75087902031D552BF9014C
:10070200F801F00A0319F10AF11F552B0000FF341A
:020712000800DD
:1007140083120313FB01FA01F9018030F800F10C94
:10072400F00C031C9E2B7408F90775080318750F49
:10073400FA070318FB0A0310F01FA62B7408FA0724
:1007440075080318750FFB07FB0CFA0CF90CF80C71
:10075400031C912B7B08F3007A08F2007908F1005E
:060764007808F000080017
:10076A000130831203139F00E8300317A8000330F7
:10077A00A9001822C330831203139F059F15013065
:08078A000317A8007A21080002
:0A07920083120317A8017A21080062
:10079C00E02B8030831203179F00F32BC0309F0097
:1007AC00F32B94309F00F32BD4309F00F32B80302D
:1007BC009F00F32B831203171F08013A0319CF2B49
:1007CC001F08023A0319D42B1F08033A0319D72B1D
:1007DC001F08043A0319DA2BDD2B2003F0001F0845
:1007EC00F00770089F007008AD00BE2083165B10E8
:1007FC00EF016F0883120317210784000008031907
:10080C00132C831603136F0883120317210784001C
:10081C000008A8003822EF0AFF2B831603135B1481
:02082C000800C2
:10082E000730831203139204C7308316920083128B
:0E083E0095019B010C3097040C309D040800BE
:10084C0083160313881208120810881008118811D7
:10085C00831288120812881108118810081072204F
:10086C007220722088140814881686208812722030
:10087C00881686208812722088168620881272208C
:10088C0008108816862088127220881686208812F6
:10089C0088108815881686208812722088110814F2
:1008AC0088168620881208108816862088127220D6
:1008BC0088168620881208148816862088127220C2
:1008CC0008108816862088128815081588140814B4
:0E08DC00881686208812722083165B1408008E
:1008EA0031218A110A128000840AD40A0319D50A0E
:0808FA00F003031D752C08003A
:1009020083120313F401F501F601F70103171F081F
:10091200F0002008F1002108F2002208F300C821AB
:10092200013003180030F00070080319A62C0030C3
:1009320003171F06F00000302006F1008030210668
:10094200F20000302206F300AF2C03171F08F0005C
:0E0952002008F1002108F2002208F30008003E
:1009600083120317A401A5011F08A6002008A700F1
:1009700080302006F00080307002031DC12C003052
:100980001F020318CF2C0130A4000030A5001F085F
:10099000003CA6002008031C013EA701A702260870
:1009A000A8002708A9002108AA0038210630A200C3
:1009B0000030A3002308003C031DE02C2208003C6B
:1009C0000318FB2C22082107F20001302202F0005C
:1009D0000030031C013E2302F1007008210784004F
:1009E0000008F00072088400700880000130A20244
:1009F000031CA303DA2C2108840020308000240883
:100A000025040319192DA201A3012208210784003E
:100A10000008203A031D102DA20A0319A30A052D70
:100A20000130A202031CA3032208210784002D30F9
:040A3000800008003A
:100A34008030831603139F00A421232107308316DB
:100A44008500FC308700C5308600831287100612AB
:100A540086128611F93083169200073083129200B1
:020A6400080088
:100A660083120313FB0173080319702D7208FA0031
:100A7600F2178E30F302F31F732DF309F30A0830D1
:100A86007302031C562DF300F10D7208F100F201FA
:100A960008307302031C562DF300F10DF1017308A3
:100AA600031D03105E2D730803195E2D0310F20C4F
:100AB600F10CF30B592D7B1B711C682D031C682D43
:100AC600F10A0319F20AF21B7F2DFA1F822DF20991
:100AD600F109F10A0319F20A822DF201F101822DC0
:100AE6007B14FB1F852DF201FA1F852DFF30F200C6
:100AF600F100FA0DF20C852D0130FC00872D003037
:100B0600FC00872DFF30FC00FC0803198B2DBB2150
:0A0B16007108F0007208F1000800F9
:100B2000023083120313FB000430FC00BA30FD00D6
:100B3000FD0B982DFC0B982DFB0B982D0000080049
:100C3C0025308400453083120313F000A030831656
:100C4C00D4000530D5007524A030840011308312F7
:100C5C00F00000308316D4000630D50075246A30BD
:100C6C00840005308312F00019308316D40006304E
:100C7C00D5007524B13084001B308312F000E530B0
:100C8C008316D4000530D50075246F3084000130F4
:100C9C008312F00003308316D4000030D500752485
:100CAC00CC30840008308312F00011308316D4004D
:080CBC000630D5007524080084
:101000008A111E268A158A111A258A15FD30831623
:1010100087008A1126248A15013083120317AD0038
:101020008A11BE208A150C300317AD008A11BE202C
:101030008A158A1117248A15013003179F00013081
:10104000A0003B30A1008A11CE238A150230831202
:1010500003179F000130A0004630A1008A11CE2363
:101060008A153330FB00BB30FC00DF30FD00FD0B88
:101070003728FC0B3728FB0B372800000000013015
:1010800083120317AD008A11BE208A150C30031796
:10109000AD008A11BE208A15013003179F00013070
:1010A000A000A030A1008A11CE238A153330FB00A6
:1010B000BB30FC00DF30FD00FD0B5C28FC0B5C2826
:1010C000FB0B5C28000000008A11B5238A1570080C
:1010D000DE007108DF008A11BC228A1570088316B1
:1010E000E0007108E1008A11C9238A157008E20046
:1010F0007108E3005E08F0005F08F100F430F400CE
:101100000130F5008A118A238A15FF30F40003307C
:10111000F5008A1121238A158A119E228A157008EA
:101120008316E4007108E5007208E6007308E70022
:101130001D30831203179700003098002530990066
:1011400002309A00831603136408831203179F006A
:1011500083160313650883120317A0008316031375
:10116000660883120317A10083160313670883120E
:101170000317A2008A1181248A15700883160313AD
:10118000E4007108E5007208E6007308E7008A11C0
:1011900033258A15700803179F007108A000E830F6
:1011A000A1008A11B0248A15E83083160313EF00DA
:1011B0008A11ED228A15013083120317AD008A11BE
:1011C000BE208A150C300317AD008A11BE208A1587
:1011D000013003179F000830A000E830A1008A11F9
:1011E000CE238A150630FB001330FC00AD30FD0025
:1011F000FD0BF828FC0BF828FB0BF828000000007A
:101200006408831203179F00831603136508831273
:101210000317A00083160313660883120317A100A7
:1012200083160313670883120317A2008A1181240F
:101230008A1570089B0071089C0072089D00730855
:101240009E001B0883160313E400831203171C0877
:1012500083160313E500831203171D088316031377
:10126000E600831203171E0883160313E700831298
:1012700003171708F0001808F1008A119E228A153A
:1012800003171B08F4001C08F5001D08F6001E08D3
:10129000F7008A11C8218A15013003180030F000C8
:1012A000700803190E2A83166408F0006508F1001F
:1012B0006608F2006708F3008A1133258A15700862
:1012C00003179F007108A000E830A1008A11B02424
:1012D0008A15E83083160313EF008A11ED228A1570
:1012E000013083120317AD008A11BE208A150C301D
:1012F0000317AD008A11BE208A15013003179F0025
:101300000130A000A930A1008A11CE238A15013036
:10131000831203179F000830A000E830A1008A1153
:10132000CE238A15103083128600143003179F00D5
:101330000130A0008A11D1228A153330FB00BB3066
:10134000FC00DF30FD00FD0BA329FC0BA329FB0BE8
:10135000A3290000000001300317AD008A11BE2050
:101360008A150C300317AD008A11BE208A15013092
:1013700003179F000130A0006130A1008A11CE2325
:101380008A150230831203179F000130A0004D30F0
:10139000A1008A11CE238A15FF30831203179F0004
:1013A0000130A0008A11D1228A153330FB00BB30F6
:1013B000FC00DF30FD00FD0BDB29FC0BDB29FB0B08
:1013C000DB290000000003179F010130A0008A11F3
:1013D000D1228A152030860001300317AD008A1112
:1013E000BE208A150C300317AD008A11BE208A1565
:1013F000013003179F000130A0005830A1008A116E
:10140000CE238A150230831203179F000130A000FB
:101410003230A1008A11CE238A15DF2A83160030CC
:101420006106031D152A01306006031D7C2A103059
:101430008312860001300317AD008A11BE208A1581
:101440000C300317AD008A11BE208A150130031736
:101450009F000130A0002530A1008A11CE238A15FB
:101460000230831203179F000130A000CC30A1008E
:101470008A11CE238A15FF30831203179F00013093
:10148000A0008A11D1228A159930FB003130FC006E
:10149000A230FD00FD0B4A2AFC0B4A2AFB0B4A2A0C
:1014A000000003179F010130A0008A11D1228A1584
:1014B0002030860001300317AD008A11BE208A1546
:1014C0000C300317AD008A11BE208A1501300317B6
:1014D0009F000130A000B830A1008A11CE238A15E8
:1014E0000230831203179F000130A000C130A10019
:1014F0008A11CE238A15DF2A8030831203171A0639
:10150000F00080308316031363067002031D8C2ADB
:1015100062088312031719020318DA2A83160313C9
:101520006208831203179F00831603136308831254
:101530000317A0001030A1008A11B0248A151030C2
:1015400083160313EF008A11ED228A1501308312EE
:101550000317AD008A11BE208A150C300317AD00A9
:101560008A11BE208A15013003179F000130A000A8
:101570006A30A1008A11CE238A1502308312031724
:101580009F000130A000B130A1008A11CE238A153E
:101590002830831286006630FB007630FC00C130B4
:1015A000FD00FD0BD12AFC0BD12AFB0BD12A2030E8
:1015B0008600DF2A83120313870120308600642807
:0215C000E02A1F
:020006000F34B5
:100B4000483475346D3469346434693474347934B8
:0A0B500020344C346F347734003445
:100B5A00503475346D34703420344F34463446344E
:020B6A00003455
:100B6C00493472347234693467346134743469349E
:060B7C006F346E340034FA
:0E0B8200533479347334743465346D34003474
:100B9000503475346D34703420344F344E34203436
:060BA0004634533400341A
:100BA60043346F346D3470346C3465347434653466
:020BB600003409
:100BB8007734413454344534523449344E3447340C
:020BC8000034F7
:0E0BCA004C346534643420344F344E340034DF
:100BD80043346F346D3470346C3465347434653434
:020BE8000034D7
:100BEA00503475346D34703420344F3446344634BE
:020BFA000034C5
:040BFC000A34003483
:100C000043346834653463346B3469346E34673428
:020C10000034AE
:100C1200743465346D34703420343D3420340034FF
:100C2200503475346D34703420344F344E340034C3
:0A0C32004434613472346B34003432
:02400E004A2F37
:00000001FF
